:060000000A128A11122809
:10000800FE00030EF1000408F2000A08F300831250
:1000180003137F08F4000A128A11EE280A128A11C3
:100028001528F701F8010A128A110821A400830192
:100038000A128A11C72883120313061C3E282403B8
:10004800031D3E280230A3002308A40006108614CE
:1000580006158615061A322801309528861A36287C
:1000680004309528061B3A2807309528861B9828BF
:100078000A309528861C5C2802302406031D5C285B
:100088000330A3002308A40006148610061586155D
:10009800061A502802309528861A542805309528C3
:1000A800061B582808309528861B98280B30952859
:1000B800061D7A2803302406031D7A280430A3007D
:1000C8002308A4000614861406118615061A6E283D
:1000D80003309528861A722806309528061B76283C
:1000E80009309528861B98280C309528861D982855
:1000F80004302406031D9828A401A40A06148614B3
:1001080006158611061A8A280D309528861A8E2813
:100118000E309528061B92280F309528861B9828A4
:1001280010300A128A119A2077100800F500F6019B
:1001380075087602031808008312031307140D309C
:10014800A200AF30A100C130A000A00BA928A10BCC
:10015800A928A20BA92800008312031307100D3049
:10016800A200AF30A100C130A000A00BB928A10B9C
:10017800B928A20BB9280000013083120313A0008C
:100188002008F6079C28803083160313810081120B
:10019800011281110115811401148B170B178B168D
:1001A8009C30831203138100831603138701831283
:1001B80003138701F030831603138600013083127E
:1001C80003138600771CE6280A128A111F200A12D8
:1001D8008A11E6280B1DFD280B119C308100013087
:1001E800F0007008F80704307806031DFD2877141E
:1001F800F8017408FF0073088A0072088400710E01
:0A0208008300FE0E7E0E0900013493
:02400E003A3F37
:00000001FF
