:060000000A128A11122809
:10000800FE00030EF1000408F2000A08F300831250
:1000180003137F08F4000A128A111D280A128A1194
:1000280015280A128A117220F50083010A128A1112
:1000380052280B1D47280B1189308100861C2F2858
:100048007503031D2F280230F0007008F500861094
:10005800061586154728061D3C2802307506031D1F
:100068003C280330F0007008F50086140611462875
:10007800861D472803307506031D4728F501F50A34
:100088008614061586117408FF0073088A00720822
:100098008400710E8300FE0E7E0E09000730831661
:1000A80003139C0007309F00873081008B170B17C4
:1000B8008B168930831203138100033083160313D0
:1000C80085000330831203138500F0308316031371
:0E00D8008600FF308312031386007128013466
:02400E003A3F37
:00000001FF
