:060000000A128A11122809
:10000800FE00030EF0000408F1000A08F200831253
:1000180003137F08F3000A128A1151280A128A1161
:10002800152883010A128A11192807308316031329
:100038009C0007309F00873081008B170B178B16A9
:10004800893083120313810003308316031385005C
:1000580003308312031385008312031305110D3037
:10006800F600AF30F500C130F400F40B3928F50B79
:100078003928F60B392800008312031305150D30B3
:10008800F600AF30F500C130F400F40B4928F50B49
:100098004928F60B4928000030280B1D5D280B1154
:1000A8008930810085185A2885155D2805185D282E
:1000B80085117308FF0072088A0071088400700EA9
:0800C8008300FE0E7E0E09000C
:02400E003A3F37
:00000001FF
