:060000000A128A11122809
:10000800FE00030EF0000408F1000A08F200831253
:1000180003137F08F3000A128A11C02A0A128A11F0
:100028001528F90183132030840060300A128A11E0
:100038000C2383010A128A11D22983120313E900BF
:1000480069088400203083130006031D302801301E
:10005800E4006408E90724286908840009300006D8
:1000680003192B28E701E801E601690884002D300F
:100078000006031D44280130E4006408E6074A2806
:10008800690884002B300006031D4E280130E40067
:100098006408E9076908840000080A128A11EA223C
:1000A8000A128A11031C7C28831203136808F500BE
:1000B8006708F4000A30F6000030F7000A128A11C7
:1000C80063220A128A1183120313690884008313B6
:1000D80000087407E40075080318750AE500640849
:1000E800D03EE70065080318013EFF3EE8004A28B5
:1000F80083120313660803198D286709E400680949
:10010800E500E40A0319E50A6408E2006508E3006B
:1001180008006808E3006708E20008008312031378
:10012800E5007530F6007608E1000130831203130C
:10013800E507FF30650784000A128A1174210A1244
:100148008A11F6007608E2006208031908002530D3
:1001580062060319B62862080A128A11AA220A122C
:100168008A11992883120313E001ED28610884009D
:100178000008E3000030E4000130F6007608E107EB
:1001880063086404031DCC284E30E3008030E4008B
:100198006408FF00630884000A128A116A210A129F
:1001A8008A11003A031999286408FF00630884003B
:1001B8000A128A116A210A128A110A128A11AA22BB
:1001C8000A128A11013083120313E3070318E40AA1
:1001D800CC280130E507FF30650784000A128A1130
:1001E80074210A128A11E200003A03190029733AAD
:1001F8000319BA2899289928080083120313E200E2
:100208006208F6007608E3004929620863060319C4
:10021800492920300A128A11AA220A128A110830A2
:100228000A128A11AA220A128A11013083120313B0
:10023800E302492908300A128A11AA220A128A11ED
:1002480020300A128A11AA220A128A1108300A12C8
:100258008A11AA220A128A11013083120313E302B7
:1002680063086202031849291E296308840083135E
:10027800800108006008F60063088400760883138C
:1002880080000130F6007608E3070A128A11F82286
:100298000A128A11F600F701760883120313E000A8
:1002A8007708E1006108003A03195B293E296008D4
:1002B800083A03190929023A03193929073A03198F
:1002C8003929183A031934293E294929FF1B742969
:1002D80083137F1883170008840A0319FF0A08008C
:1002E80001308A000408840A820700340A344F3433
:1002F80020346E3475346D34653472346F34203480
:1003080064346934673469347434613464346F3400
:10031800203466346F34693420343A34203400345D
:100328002A342A342A34203449346E346934633404
:10033800693461346E3464346F3420345534413454
:100348005234543420342A342A342A340A340034B7
:10035800443469346734693474346534203475340A
:100368006D3420346E3475346D34653472346F34C2
:100378003A340A34003441346C3465347234743499
:1003880061340A34003428346E3475346C346C3477
:1003980029340034253473340A3400340A128A119B
:1003A800D6220A128A11831203139F01063083167C
:1003B80003139F0007309C008601831203138601F4
:1003C8008B170B171B300A128A1192200A128A11F6
:1003D80033300A128A1192200A128A1120300A1226
:1003E8008A1101210A128A1101300A128A119220F7
:1003F8000A128A11203083120313EC006C08F500EE
:1004080055300A128A1192200A128A110A128A1188
:100418008A220A128A11EC29F700F8017708780273
:10042800031808008312031306140D30F600AF30CA
:10043800F500C130F400F40B1F2AF50B1F2AF60B48
:100448001F2A00008312031306100D30F600AF3088
:10045800F500C130F400F40B2F2AF50B2F2AF60B08
:100468002F2A00000130F4007408F807122A8312BA
:100478000313E2000130E0000030E100492A0130B6
:10048800F800780883120313E207620884008313D4
:10049800000803195E2A62088400831300080A1200
:1004A8008A11EA220A128A110318432A83120313B3
:1004B800E001E1016108F7006008F6000800831216
:1004C8000313E001E101741C712A760883120313F7
:1004D800E0070318E10A7708E10701300310F60D79
:1004E800F70DFF3E031D722A01300310F50CF40CC2
:1004F800FF3E031D792A74087504031D672A8312B9
:1005080003136108F5006008F400080020300A129F
:100518008A113B220A128A11760877040319A52A40
:1005280020300A128A1121200A128A118312031319
:100538006308EB006208EA006A080A128A111022AE
:10054800080046300A128A1192200800F400831627
:100558000313981CAB2A74088312031399000A30FA
:100568007406031D080083160313981CB72A0D3060
:100578008312031399000800831603138C1ECA2ADA
:10058800831203138C1ECA2AF9011A0873088312EE
:10059800FF0072088A0071088400700E8300FE0E46
:1005A8007E0E0900831603131815181218138312E8
:1005B8000313181681308316031399008C168312BF
:1005C800031398178316031398160800F500F4010F
:1005D8003A3075020318F62A30307502031CF62AE1
:1005E800F401F40A740C08000A128A1103230A128F
:1005F8008A11F5000A128A11AA2275080800F90161
:10060800F90A7908031D052B831203131A08080039
:1006180064008001840A04060319003404060D2BC3
:02400E003A3F37
:00000001FF
