:060000000A128A11122809
:10000800FE00030EF0000408F1000A08F200831253
:1000180003137F08F3000A128A11D62A0A128A11DA
:100028001528F90183132030840060300A128A11E0
:10003800072383010A128A11D22983120313E900C4
:1000480069088400203083130006031D302801301E
:10005800E4006408E90724286908840009300006D8
:1000680003192B28E701E801E601690884002D300F
:100078000006031D44280130E4006408E6074A2806
:10008800690884002B300006031D4E280130E40067
:100098006408E9076908840000080A128A11E52241
:1000A8000A128A11031C7C28831203136808F500BE
:1000B8006708F4000A30F6000030F7000A128A11C7
:1000C80065220A128A1183120313690884008313B4
:1000D80000087407E40075080318750AE500640849
:1000E800D03EE70065080318013EFF3EE8004A28B5
:1000F80083120313660803198D286709E400680949
:10010800E500E40A0319E50A6408E2006508E3006B
:1001180008006808E3006708E20008008312031378
:10012800E5007530F6007608E1000130831203130C
:10013800E507FF30650784000A128A1174210A1244
:100148008A11F6007608E2006208031908002530D3
:1001580062060319B62862080A128A11AC220A122A
:100168008A11992883120313E001ED28610884009D
:100178000008E3000030E4000130F6007608E107EB
:1001880063086404031DCC284E30E3008030E4008B
:100198006408FF00630884000A128A116A210A129F
:1001A8008A11003A031999286408FF00630884003B
:1001B8000A128A116A210A128A110A128A11AC22B9
:1001C8000A128A11013083120313E3070318E40AA1
:1001D800CC280130E507FF30650784000A128A1130
:1001E80074210A128A11E200003A03190029733AAD
:1001F8000319BA2899289928080083120313E200E2
:100208006208F6007608E3004929620863060319C4
:10021800492920300A128A11AC220A128A110830A0
:100228000A128A11AC220A128A11013083120313AE
:10023800E302492908300A128A11AC220A128A11EB
:1002480020300A128A11AC220A128A1108300A12C6
:100258008A11AC220A128A11013083120313E302B5
:1002680063086202031849291E296308840083135E
:10027800800108006008F60063088400760883138C
:1002880080000130F6007608E3070A128A11F3228B
:100298000A128A11F600F701760883120313E000A8
:1002A8007708E1006108003A03195B293E296008D4
:1002B800083A03190929023A03193929073A03198F
:1002C8003929183A031934293E294929FF1B742969
:1002D80083137F1883170008840A0319FF0A08008C
:1002E80001308A000408840A820700340A344F3433
:1002F80020346E3475346D34653472346F34203480
:1003080064346934673469347434613464346F3400
:10031800203466346F34693420343A34203400345D
:100328002A342A342A34203449346E346934633404
:10033800693461346E3464346F3420345534413454
:100348005234543420342A342A342A340A340034B7
:10035800443469346734693474346534203475340A
:100368006D3420346E3475346D34653472346F34C2
:100378003A340A34003441346C3465347234743499
:1003880061340A34003428346E3475346C346C3477
:1003980029340034253473340A34003483160313A3
:1003A80007108312031387010A128A11C2220A1244
:1003B8008A11831203139F010630831603139F00CB
:1003C80007309C008B170B171B300A128A119220DA
:1003D8000A128A1133300A128A1192200A128A11DB
:1003E80020300A128A1101210A128A1101300A12D8
:1003F8008A1192200A128A11203083120313EC000A
:100408006C08F50055300A128A1192200A128A11D6
:100418000A128A118C220A128A11EE29F700F801B1
:1004280077087802031808008312031307140D30A5
:10043800F600AF30F500C130F400F40B212AF50BBB
:10044800212AF60B212A00008312031307100D300E
:10045800F600AF30F500C130F400F40B312AF50B8B
:10046800312AF60B312A00000130F4007408F8072D
:10047800142A83120313E2000130E0000030E10087
:100488004B2A0130F800780883120313E207620848
:100498008400831300080319602A62088400831308
:1004A80000080A128A11E5220A128A110318452A3D
:1004B80083120313E001E1016108F7006008F60008
:1004C800080083120313E001E101741C732A760803
:1004D80083120313E0070318E10A7708E1070130E4
:1004E8000310F60DF70DFF3E031D742A01300310AB
:1004F800F50CF40CFF3E031D7B2A74087504031DDC
:10050800692A831203136108F5006008F4000800E3
:1005180020300A128A113D220A128A1176087704BD
:100528000319A72A20300A128A1121200A128A11D7
:10053800831203136308EB006208EA006A080A12D0
:100548008A111222080046300A128A1192200800E5
:10055800F40083160313981CAD2A7408831203133E
:1005680099000A307406031D080083160313981CAB
:10057800B92A0D3083120313990008008316031358
:1005880018151812181383120313181681308316BE
:10059800031399008C1683120313981783160313F9
:1005A800981608008C1EDA2AF9011A087308FF0049
:1005B80072088A0071088400700E8300FE0E7E0E99
:1005C8000900F500F4013A3075020318F12A3030B9
:1005D8007502031CF12AF401F40A740C08000A12CB
:1005E8008A11FE220A128A11F5000A128A11AC2217
:1005F80075080800F901F90A7908031D002B831210
:1006080003131A08080064008001840A0406031909
:0606180000340406082B6B
:02400E003A3F37
:00000001FF
