:060000000A128A11122809
:10000800FE00030EF3000408F4000A08F50083124A
:1000180003137F08F6000A128A1121280A128A118E
:100028001528F701F801F901FA010A128A111621B7
:10003800FB0083010A128A119E288B1C3728033083
:10004800F2008A30F1005630F000F00B2928F10B4D
:100058002928F20B2928302883120313061C362876
:100068000230F7068B100B1D59280230790203184D
:100078005728791C4328831203130716462883122E
:100088000313071279184C288312031387164F2875
:100098008312031387127710791877140130F00050
:1000A8007008F9075828F9010B11831203130C1F64
:1000B8007F281E08F0007008F8007808950083165D
:1000C80003131E08F00007300310F00CFF3E031D59
:1000D8006828701C732883120313971676288312D6
:1000E80003139712831603131E08831203131712A0
:1000F80077151F150C130D1F8B28831603131C1F50
:100108008728F7148828F710831203130D138C1E01
:10011800932877161A08F0007008FB008C127608EE
:10012800FF0075088A0074088400730E8300FE0EB1
:100138007E0E0900FF308316031386008801FF3006
:100148008500051485148515051207118112011201
:1001580081110115811001141F13831203139F17B6
:100168001F139F121F129F15831603139F139F11AE
:100178001F159F101F101C119C101C149C111C167D
:100188009C128312031312139212121292119210DC
:10019800121095019712171297151715971417141F
:1001A800FF3083160313920001178B100B1683126E
:1001B80003130C13831603130C17831203130D1365
:1001C800831603130D170B118B16831203138C124E
:1001D800831603138C160B178B1783120313121530
:1001E8001F14F628F7280000831203131F15FC2894
:0601F800FD280000FE28B6
:1002000001308A000408840A82070034BF3486342F
:10021000DB34CF34E634ED34FD348734FF34E73457
:0E022000F734FC34B934DE34F934F134583498
:02400E003AFF77
:00000001FF
