:060000000A128A11122809
:10000800FE00030EF0000408F1000A08F200831253
:1000180003137F08F3000A128A11EB280A128A11C7
:100028001528FA010A128A11FC20FB0083010A1222
:100038008A11C42883120313061C3D287B03031D61
:100048003D280230F9007908FB00061086140615D1
:100058008615061A312801309428861A3528043066
:100068009428061B392807309428861B97280A30BD
:100078009428861C5B2802307B06031D5B2803300E
:10008800F9007908FB000614861006158615061A6D
:100098004F2802309428861A532805309428061BC6
:1000A800572808309428861B97280B309428061D5B
:1000B800792803307B06031D79280430F900790874
:1000C800FB000614861406118615061A6D280330DF
:1000D8009428861A712806309428061B752809303A
:1000E8009428861B97280C309428861D972804305E
:1000F8007B06031D9728FB01FB0A061486140615C8
:100108008611061A89280D309428861A8D280E30F3
:100118009428061B91280F309428861B97281030A6
:100128000A128A1199207A100800F700F801770856
:100138007802031808008312031307140D30F60021
:10014800AF30F500C130F400F40BA828F50BA8284F
:10015800F60BA82800008312031307100D30F600D1
:10016800AF30F500C130F400F40BB828F50BB8280F
:10017800F60BB82800000130F4007408F8079B2833
:100188008030831603138100811201128111011539
:10019800811401148B170B178B16893083120313E4
:1001A8008100831603138701831203138701F0303C
:1001B80083160313860001308312031386007A1C0A
:1001C800E3280A128A111E200A128A11E3280B1D3D
:1001D800F1287A140B11893081007308FF00720826
:1001E8008A0071088400700E8300FE0E7E0E0900DE
:0201F8000134D0
:02400E003A3F37
:00000001FF
